{
  "contractName": "SquareVerifier",
  "abi": [
    {
      "constant": false,
      "inputs": [
        {
          "name": "a",
          "type": "uint256[2]"
        },
        {
          "name": "b",
          "type": "uint256[2][2]"
        },
        {
          "name": "c",
          "type": "uint256[2]"
        },
        {
          "name": "input",
          "type": "uint256[2]"
        }
      ],
      "name": "verifyTx",
      "outputs": [
        {
          "name": "r",
          "type": "bool"
        }
      ],
      "payable": false,
      "stateMutability": "nonpayable",
      "type": "function"
    },
    {
      "anonymous": false,
      "inputs": [
        {
          "indexed": false,
          "name": "s",
          "type": "string"
        }
      ],
      "name": "Verified",
      "type": "event"
    }
  ],
  "bytecode": "0x608060405234801561001057600080fd5b506110b1806100206000396000f3fe608060405234801561001057600080fd5b506004361061002b5760003560e01c8063621e9ec014610030575b600080fd5b61018f600480360361014081101561004757600080fd5b8101908080604001906002806020026040519081016040528092919082600260200280828437600081840152601f19601f82011690508083019250505050505091929192908060800190600280602002604051908101604052809291906000905b828210156100fc578382604002016002806020026040519081016040528092919082600260200280828437600081840152601f19601f820116905080830192505050505050815260200190600101906100a8565b50505050919291929080604001906002806020026040519081016040528092919082600260200280828437600081840152601f19601f820116905080830192505050505050919291929080604001906002806020026040519081016040528092919082600260200280828437600081840152601f19601f82011690508083019250505050505091929192905050506101a9565b604051808215151515815260200191505060405180910390f35b60006101b3610f05565b6040518060400160405280876000600281106101cb57fe5b60200201518152602001876001600281106101e257fe5b60200201518152508160000181905250604051806040016040528060405180604001604052808860006002811061021557fe5b602002015160006002811061022657fe5b602002015181526020018860006002811061023d57fe5b602002015160016002811061024e57fe5b6020020151815250815260200160405180604001604052808860016002811061027357fe5b602002015160006002811061028457fe5b602002015181526020018860016002811061029b57fe5b60200201516001600281106102ac57fe5b602002015181525081525081602001819052506040518060400160405280856000600281106102d757fe5b60200201518152602001856001600281106102ee57fe5b60200201518152508160400181905250606060026040519080825280602002602001820160405280156103305781602001602082028038833980820191505090505b50905060008090505b60028110156103785784816002811061034e57fe5b602002015182828151811061035f57fe5b6020026020010181815250508080600101915050610339565b50600061038582846103f0565b14156103e1577f3f3cfdb26fb5f9f1786ab4f1a1f9cd4c0b5e726cbdfc26e495261731aad44e396040518080602001828103825260228152602001806110646022913960400191505060405180910390a16001925050506103e8565b6000925050505b949350505050565b60006103fa610f39565b61040261051d565b905080608001515160018551011461041957600080fd5b610421610f81565b6040518060400160405280600081526020016000815250905060008090505b855181101561049857610489826104848560800151600185018151811061046357fe5b602002602001015189858151811061047757fe5b602002602001015161096b565b6109ff565b91508080600101915050610440565b506104bb8183608001516000815181106104ae57fe5b60200260200101516109ff565b9050610501846000015185602001516104d384610ab2565b85604001516104e58960400151610ab2565b87606001516104f78960000151610ab2565b8960200151610b4c565b61051057600192505050610517565b6000925050505b92915050565b610525610f39565b60405180604001604052807f291a5f798f9e99e27c83fe3dd634fdbc99c6265d8b17f48b4fc8380049eac6fb81526020017f1a34bf1cb05689e619dc905611946f16a862285862c6056520643cce8d34e4608152508160000181905250604051806040016040528060405180604001604052807f2e39fe5ab6ee2ca839f796c861ac3d9a90c04bcebb9347fc7745607deab5820781526020017f27a0d224b0fe4fb9ad21036028361c7eb2c2b489e2696a65c83ce968f33e395d815250815260200160405180604001604052807f0b2183cead00a2ea1f5ed4141e0286802685f6e1b51bece18df0f810650a788781526020017f1f62c28f951ad3cffeac4fba02451e8c05600f922d57adddf03fd5c0f409af7b8152508152508160200181905250604051806040016040528060405180604001604052807f098bba850d638e3696814191cb9ec8a64f4df0c04d34b1af3d318ed54f55488a81526020017f0153f7f4b7d66cb56d3c11db1a79dc3768c93dc04d82f1ab1c1bf3b1581f221b815250815260200160405180604001604052807f064e84b6fa5fa8560f6f7c67b3a0f1e5c93440c48428ad6da2fb05e9d691552581526020017f05856021785731ee88fc4284cb7a1ab2f73e84199ccb381994f5b0df99c764098152508152508160400181905250604051806040016040528060405180604001604052807f0b52db6fb05c59edf8ebc5d6273bbb1d1aae0c26544dfa931852501979ed633b81526020017f0e382c688477e1e766b3e12e97e9724d5dc79294e48696b28d4c67744ce860c5815250815260200160405180604001604052807f1c4cb97677eaaa9e8af2c0d81d20027d4c62ce05b46a5fffb24a4faf88f5779281526020017f1f2c28a6e0ed5b3316034c433237ab60b78fe0af29f864f2cf6f08d9710622a48152508152508160600181905250600360405190808252806020026020018201604052801561080c57816020015b6107f9610f9b565b8152602001906001900390816107f15790505b50816080018190525060405180604001604052807f27f158db07a594fcd4d2a092847b8576661edc5e4f3cf6c287602a6db457b1f281526020017f2e458b56034dab05b2ceaeae11b9b39479522796851184baa4a91c99e9135372815250816080015160008151811061087b57fe5b602002602001018190525060405180604001604052807f062075b49597989dcb27edab996141ecd7da237fc4db2176e4757257f5f06b3d81526020017f16fe3df17db03dfcd72d1219665360d4e25589fea780deaca73be3ccfcd95e4c81525081608001516001815181106108ec57fe5b602002602001018190525060405180604001604052807f169f2a63c6edb7ab27e4f580cf4a09ff21245174329c3d49bda6bd6b8f360a2a81526020017f0216feabe7b06b926a1fd2607b78e0f2006eb386ab6dcfa55674a4b9ba51cfe1815250816080015160028151811061095d57fe5b602002602001018190525090565b610973610f81565b61097b610fb5565b83600001518160006003811061098d57fe5b6020020181815250508360200151816001600381106109a857fe5b60200201818152505082816002600381106109bf57fe5b6020020181815250506000606083608084600060076107d05a03f1905080600081146109ea576109ec565bfe5b50806109f757600080fd5b505092915050565b610a07610f81565b610a0f610fd7565b836000015181600060048110610a2157fe5b602002018181525050836020015181600160048110610a3c57fe5b602002018181525050826000015181600260048110610a5757fe5b602002018181525050826020015181600360048110610a7257fe5b602002018181525050600060608360c084600060066107d05a03f190508060008114610a9d57610a9f565bfe5b5080610aaa57600080fd5b505092915050565b610aba610f81565b60007f30644e72e131a029b85045b68181585d97816a916871ca8d3c208c16d87cfd47905060008360000151148015610af7575060008360200151145b15610b1b576040518060400160405280600081526020016000815250915050610b47565b60405180604001604052808460000151815260200182856020015181610b3d57fe5b0683038152509150505b919050565b600060606004604051908082528060200260200182016040528015610b8b57816020015b610b78610f9b565b815260200190600190039081610b705790505b50905060606004604051908082528060200260200182016040528015610bcb57816020015b610bb8610ff9565b815260200190600190039081610bb05790505b5090508a82600081518110610bdc57fe5b60200260200101819052508882600181518110610bf557fe5b60200260200101819052508682600281518110610c0e57fe5b60200260200101819052508482600381518110610c2757fe5b60200260200101819052508981600081518110610c4057fe5b60200260200101819052508781600181518110610c5957fe5b60200260200101819052508581600281518110610c7257fe5b60200260200101819052508381600381518110610c8b57fe5b6020026020010181905250610ca08282610cb0565b9250505098975050505050505050565b60008151835114610cc057600080fd5b6000835190506000600682029050606081604051908082528060200260200182016040528015610cff5781602001602082028038833980820191505090505b50905060008090505b83811015610ea557868181518110610d1c57fe5b602002602001015160000151826000600684020181518110610d3a57fe5b602002602001018181525050868181518110610d5257fe5b602002602001015160200151826001600684020181518110610d7057fe5b602002602001018181525050858181518110610d8857fe5b602002602001015160000151600060028110610da057fe5b6020020151826002600684020181518110610db757fe5b602002602001018181525050858181518110610dcf57fe5b602002602001015160000151600160028110610de757fe5b6020020151826003600684020181518110610dfe57fe5b602002602001018181525050858181518110610e1657fe5b602002602001015160200151600060028110610e2e57fe5b6020020151826004600684020181518110610e4557fe5b602002602001018181525050858181518110610e5d57fe5b602002602001015160200151600160028110610e7557fe5b6020020151826005600684020181518110610e8c57fe5b6020026020010181815250508080600101915050610d08565b50610eae61101f565b60006020826020860260208601600060086107d05a03f190508060008114610ed557610ed7565bfe5b5080610ee257600080fd5b600082600060018110610ef157fe5b602002015114159550505050505092915050565b604051806101000160405280610f19610f9b565b8152602001610f26610ff9565b8152602001610f33610f9b565b81525090565b604051806101e00160405280610f4d610f9b565b8152602001610f5a610ff9565b8152602001610f67610ff9565b8152602001610f74610ff9565b8152602001606081525090565b604051806040016040528060008152602001600081525090565b604051806040016040528060008152602001600081525090565b6040518060600160405280600390602082028038833980820191505090505090565b6040518060800160405280600490602082028038833980820191505090505090565b604051806080016040528061100c611041565b8152602001611019611041565b81525090565b6040518060200160405280600190602082028038833980820191505090505090565b604051806040016040528060029060208202803883398082019150509050509056fe5472616e73616374696f6e207375636365737366756c6c792076657269666965642ea165627a7a72305820b22cf626c6f9c9e22d4da198063b0d092c6c9c9a78e53f80885011f3755685550029",
  "source": "pragma solidity >=0.4.21 <0.6.0;\n\nimport \"openzeppelin-solidity/contracts/utils/Address.sol\";\nimport \"./ERC721Mintable.sol\";\nimport \"./Verifier.sol\";\n\n// TODO define a contract call to the zokrates generated solidity contract <Verifier> or <renamedVerifier>\n\ncontract SquareVerifier is Verifier {\n\n}\n\n\n// TODO define another contract named SolnSquareVerifier that inherits from your ERC721Mintable class\ncontract SolnSquareVerifier is RealEstateERC721Token{\n    SquareVerifier public verifierContract;\n\n    constructor(address verifierAddress) RealEstateERC721Token() public {\n        verifierContract = SquareVerifier(verifierAddress);\n    }\n\n    // TODO define a solutions struct that can hold an index & an address\n    struct Solutions{\n        uint tokenId;\n        address to;\n    }\n\n    // TODO define an array of the above struct\n    Solutions[] SolutionsArray;\n\n    // TODO define a mapping to store unique solutions submitted\n    mapping (bytes32 => Solutions) private uniqueSolutions;\n\n\n    // TODO Create an event to emit when a solution is added\n    event SolutionWasAdded(uint tokenid,address to);\n\n\n    // TODO Create a function to add the solutions to the array and emit the event\n    function AddSolution(address _to, uint _tokenId, bytes32 key) public {\n        Solutions memory sol = Solutions({\n            tokenId: _tokenId,\n            to: _to\n        });\n        SolutionsArray.push(sol);\n        uniqueSolutions[key] = sol;\n        emit SolutionWasAdded(_tokenId, _to);\n    }\n\n    // TODO Create a function to mint new NFT only after the solution has been verified\n    //  - make sure the solution is unique (has not been used before)\n    //  - make sure you handle metadata as well as tokenSuplly\n    function mintToken(\n        address _to,\n        uint _tokenId,\n        uint[2] memory a,\n        uint[2][2] memory b,\n        uint[2] memory c,\n        uint[2] memory input\n    )\n    public\n    {\n        require(verifierContract.verifyTx(a, b, c, input), \"Solution provided is not valid\");\n        bytes32 key = keccak256(abi.encodePacked(a, b, c, input));\n        require(uniqueSolutions[key].to == address(0), \"Solution already used\");\n        AddSolution(_to,_tokenId,key);\n        super.mint(_to,_tokenId);\n    }\n\n}\n\n\n\n\n\n\n\n\n\n\n\n\n\n\n\n\n\n\n\n\n\n\n\n\n\n\n\n\n\n\n\n\n\n\n\n\n\n\n\n\n\n\n\n\n\n",
  "sourcePath": "/c/Users/rickw/Development/Blockchain-Projects/Blockchain-Capstone/eth-contracts/contracts/SolnSquareVerifier.sol",
  "compiler": {
    "name": "solc",
    "version": "0.5.8+commit.23d335f2.Emscripten.clang"
  },
  "schemaVersion": "3.0.11",
  "updatedAt": "2019-06-30T14:51:52.787Z",
  "devdoc": {
    "methods": {}
  },
  "userdoc": {
    "methods": {}
  }
}